{
  "contractName": "ERC721",
  "abi": [
    {
      "anonymous": false,
      "inputs": [
        {
          "indexed": true,
          "internalType": "address",
          "name": "from",
          "type": "address"
        },
        {
          "indexed": true,
          "internalType": "address",
          "name": "to",
          "type": "address"
        },
        {
          "indexed": true,
          "internalType": "uint256",
          "name": "tokenId",
          "type": "uint256"
        }
      ],
      "name": "Transfer",
      "type": "event"
    },
    {
      "inputs": [],
      "name": "name",
      "outputs": [
        {
          "internalType": "string",
          "name": "",
          "type": "string"
        }
      ],
      "stateMutability": "view",
      "type": "function",
      "constant": true
    },
    {
      "inputs": [],
      "name": "symbol",
      "outputs": [
        {
          "internalType": "string",
          "name": "",
          "type": "string"
        }
      ],
      "stateMutability": "view",
      "type": "function",
      "constant": true
    },
    {
      "inputs": [
        {
          "internalType": "address",
          "name": "owner",
          "type": "address"
        }
      ],
      "name": "balanceOf",
      "outputs": [
        {
          "internalType": "uint256",
          "name": "",
          "type": "uint256"
        }
      ],
      "stateMutability": "view",
      "type": "function",
      "constant": true
    },
    {
      "inputs": [
        {
          "internalType": "uint256",
          "name": "tokenId",
          "type": "uint256"
        }
      ],
      "name": "ownerOf",
      "outputs": [
        {
          "internalType": "address",
          "name": "",
          "type": "address"
        }
      ],
      "stateMutability": "view",
      "type": "function",
      "constant": true
    },
    {
      "inputs": [
        {
          "internalType": "address",
          "name": "to",
          "type": "address"
        },
        {
          "internalType": "uint256",
          "name": "tokenId",
          "type": "uint256"
        }
      ],
      "name": "transfer",
      "outputs": [],
      "stateMutability": "nonpayable",
      "type": "function"
    },
    {
      "inputs": [
        {
          "internalType": "address",
          "name": "to",
          "type": "address"
        },
        {
          "internalType": "uint256",
          "name": "tokenId",
          "type": "uint256"
        },
        {
          "internalType": "string",
          "name": "tokenURI",
          "type": "string"
        }
      ],
      "name": "mint",
      "outputs": [],
      "stateMutability": "nonpayable",
      "type": "function"
    },
    {
      "inputs": [
        {
          "internalType": "address",
          "name": "to",
          "type": "address"
        }
      ],
      "name": "mintEasy",
      "outputs": [],
      "stateMutability": "nonpayable",
      "type": "function"
    },
    {
      "inputs": [
        {
          "internalType": "uint256",
          "name": "tokenId",
          "type": "uint256"
        }
      ],
      "name": "_getTokenURI",
      "outputs": [
        {
          "internalType": "string",
          "name": "",
          "type": "string"
        }
      ],
      "stateMutability": "view",
      "type": "function",
      "constant": true
    },
    {
      "inputs": [],
      "name": "_getTokenCount",
      "outputs": [
        {
          "internalType": "uint256",
          "name": "",
          "type": "uint256"
        }
      ],
      "stateMutability": "view",
      "type": "function",
      "constant": true
    }
  ],
  "bytecode": "0x60806040526040518060400160405280600781526020017f506f6b656d6f6e000000000000000000000000000000000000000000000000008152506003908051906020019062000051929190620000eb565b506040518060400160405280600381526020017f504b4d0000000000000000000000000000000000000000000000000000000000815250600490805190602001906200009f929190620000eb565b50604051806080016040528060578152602001620013086057913960059080519060200190620000d1929190620000eb565b506000600655348015620000e457600080fd5b5062000200565b828054620000f9906200019b565b90600052602060002090601f0160209004810192826200011d576000855562000169565b82601f106200013857805160ff191683800117855562000169565b8280016001018555821562000169579182015b82811115620001685782518255916020019190600101906200014b565b5b5090506200017891906200017c565b5090565b5b80821115620001975760008160009055506001016200017d565b5090565b60006002820490506001821680620001b457607f821691505b60208210811415620001cb57620001ca620001d1565b5b50919050565b7f4e487b7100000000000000000000000000000000000000000000000000000000600052602260045260246000fd5b6110f880620002106000396000f3fe608060405234801561001057600080fd5b50600436106100935760003560e01c80636352211e116100665780636352211e1461012057806370a082311461015057806395d89b4114610180578063a9059cbb1461019e578063d3fc9864146101ba57610093565b806306fdde0314610098578063265699e5146100b65780633d805883146100e657806346fdca0814610102575b600080fd5b6100a06101d6565b6040516100ad9190610db9565b60405180910390f35b6100d060048036038101906100cb9190610c5e565b610268565b6040516100dd9190610db9565b60405180910390f35b61010060048036038101906100fb9190610b92565b61030d565b005b61010a610534565b6040516101179190610e3b565b60405180910390f35b61013a60048036038101906101359190610c5e565b61053e565b6040516101479190610d9e565b60405180910390f35b61016a60048036038101906101659190610b92565b6105ef565b6040516101779190610e3b565b60405180910390f35b610188610638565b6040516101959190610db9565b60405180910390f35b6101b860048036038101906101b39190610bbb565b6106ca565b005b6101d460048036038101906101cf9190610bf7565b610751565b005b6060600380546101e590610f7b565b80601f016020809104026020016040519081016040528092919081815260200182805461021190610f7b565b801561025e5780601f106102335761010080835404028352916020019161025e565b820191906000526020600020905b81548152906001019060200180831161024157829003601f168201915b5050505050905090565b606060026000838152602001908152602001600020805461028890610f7b565b80601f01602080910402602001604051908101604052809291908181526020018280546102b490610f7b565b80156103015780601f106102d657610100808354040283529160200191610301565b820191906000526020600020905b8154815290600101906020018083116102e457829003601f168201915b50505050509050919050565b600073ffffffffffffffffffffffffffffffffffffffff168173ffffffffffffffffffffffffffffffffffffffff16141561037d576040517f08c379a000000000000000000000000000000000000000000000000000000000815260040161037490610ddb565b60405180910390fd5b600160008273ffffffffffffffffffffffffffffffffffffffff1673ffffffffffffffffffffffffffffffffffffffff16815260200190815260200160002060008154809291906103cd90610fad565b919050555080600080600654815260200190815260200160002060006101000a81548173ffffffffffffffffffffffffffffffffffffffff021916908373ffffffffffffffffffffffffffffffffffffffff1602179055506104bb6006546005805461043890610f7b565b80601f016020809104026020016040519081016040528092919081815260200182805461046490610f7b565b80156104b15780601f10610486576101008083540402835291602001916104b1565b820191906000526020600020905b81548152906001019060200180831161049457829003601f168201915b50505050506108d6565b6006548173ffffffffffffffffffffffffffffffffffffffff16600073ffffffffffffffffffffffffffffffffffffffff167fddf252ad1be2c89b69c2b068fc378daa952ba7f163c4a11628f55a4df523b3ef60405160405180910390a46006600081548092919061052c90610fad565b919050555050565b6000600654905090565b60008060008084815260200190815260200160002060009054906101000a900473ffffffffffffffffffffffffffffffffffffffff169050600073ffffffffffffffffffffffffffffffffffffffff168173ffffffffffffffffffffffffffffffffffffffff1614156105e6576040517f08c379a00000000000000000000000000000000000000000000000000000000081526004016105dd90610e1b565b60405180910390fd5b80915050919050565b6000600160008373ffffffffffffffffffffffffffffffffffffffff1673ffffffffffffffffffffffffffffffffffffffff168152602001908152602001600020549050919050565b60606004805461064790610f7b565b80601f016020809104026020016040519081016040528092919081815260200182805461067390610f7b565b80156106c05780601f10610695576101008083540402835291602001916106c0565b820191906000526020600020905b8154815290600101906020018083116106a357829003601f168201915b5050505050905090565b806106d48161053e565b73ffffffffffffffffffffffffffffffffffffffff163373ffffffffffffffffffffffffffffffffffffffff1614610741576040517f08c379a000000000000000000000000000000000000000000000000000000000815260040161073890610dfb565b60405180910390fd5b61074c338484610902565b505050565b600073ffffffffffffffffffffffffffffffffffffffff168373ffffffffffffffffffffffffffffffffffffffff1614156107c1576040517f08c379a00000000000000000000000000000000000000000000000000000000081526004016107b890610ddb565b60405180910390fd5b600160008473ffffffffffffffffffffffffffffffffffffffff1673ffffffffffffffffffffffffffffffffffffffff168152602001908152602001600020600081548092919061081190610fad565b919050555082600080600654815260200190815260200160002060006101000a81548173ffffffffffffffffffffffffffffffffffffffff021916908373ffffffffffffffffffffffffffffffffffffffff160217905550610875600654826108d6565b818373ffffffffffffffffffffffffffffffffffffffff16600073ffffffffffffffffffffffffffffffffffffffff167fddf252ad1be2c89b69c2b068fc378daa952ba7f163c4a11628f55a4df523b3ef60405160405180910390a4505050565b806002600084815260200190815260200160002090805190602001906108fd929190610a5d565b505050565b8160008083815260200190815260200160002060006101000a81548173ffffffffffffffffffffffffffffffffffffffff021916908373ffffffffffffffffffffffffffffffffffffffff160217905550600160008473ffffffffffffffffffffffffffffffffffffffff1673ffffffffffffffffffffffffffffffffffffffff16815260200190815260200160002060008154809291906109a390610f51565b9190505550600160008373ffffffffffffffffffffffffffffffffffffffff1673ffffffffffffffffffffffffffffffffffffffff16815260200190815260200160002060008154809291906109f890610fad565b9190505550808273ffffffffffffffffffffffffffffffffffffffff168473ffffffffffffffffffffffffffffffffffffffff167fddf252ad1be2c89b69c2b068fc378daa952ba7f163c4a11628f55a4df523b3ef60405160405180910390a4505050565b828054610a6990610f7b565b90600052602060002090601f016020900481019282610a8b5760008555610ad2565b82601f10610aa457805160ff1916838001178555610ad2565b82800160010185558215610ad2579182015b82811115610ad1578251825591602001919060010190610ab6565b5b509050610adf9190610ae3565b5090565b5b80821115610afc576000816000905550600101610ae4565b5090565b6000610b13610b0e84610e87565b610e56565b905082815260208101848484011115610b2b57600080fd5b610b36848285610f0f565b509392505050565b600081359050610b4d81611094565b92915050565b600082601f830112610b6457600080fd5b8135610b74848260208601610b00565b91505092915050565b600081359050610b8c816110ab565b92915050565b600060208284031215610ba457600080fd5b6000610bb284828501610b3e565b91505092915050565b60008060408385031215610bce57600080fd5b6000610bdc85828601610b3e565b9250506020610bed85828601610b7d565b9150509250929050565b600080600060608486031215610c0c57600080fd5b6000610c1a86828701610b3e565b9350506020610c2b86828701610b7d565b925050604084013567ffffffffffffffff811115610c4857600080fd5b610c5486828701610b53565b9150509250925092565b600060208284031215610c7057600080fd5b6000610c7e84828501610b7d565b91505092915050565b610c9081610ed3565b82525050565b6000610ca182610eb7565b610cab8185610ec2565b9350610cbb818560208601610f1e565b610cc481611083565b840191505092915050565b6000610cdc601b83610ec2565b91507f43616e6e6f74206d696e7420746f207a65726f206164647265737300000000006000830152602082019050919050565b6000610d1c600d83610ec2565b91507f4e6f7420746865206f776e6572000000000000000000000000000000000000006000830152602082019050919050565b6000610d5c600f83610ec2565b91507f4f776e6572206e6f7420666f756e6400000000000000000000000000000000006000830152602082019050919050565b610d9881610f05565b82525050565b6000602082019050610db36000830184610c87565b92915050565b60006020820190508181036000830152610dd38184610c96565b905092915050565b60006020820190508181036000830152610df481610ccf565b9050919050565b60006020820190508181036000830152610e1481610d0f565b9050919050565b60006020820190508181036000830152610e3481610d4f565b9050919050565b6000602082019050610e506000830184610d8f565b92915050565b6000604051905081810181811067ffffffffffffffff82111715610e7d57610e7c611054565b5b8060405250919050565b600067ffffffffffffffff821115610ea257610ea1611054565b5b601f19601f8301169050602081019050919050565b600081519050919050565b600082825260208201905092915050565b6000610ede82610ee5565b9050919050565b600073ffffffffffffffffffffffffffffffffffffffff82169050919050565b6000819050919050565b82818337600083830152505050565b60005b83811015610f3c578082015181840152602081019050610f21565b83811115610f4b576000848401525b50505050565b6000610f5c82610f05565b91506000821415610f7057610f6f610ff6565b5b600182039050919050565b60006002820490506001821680610f9357607f821691505b60208210811415610fa757610fa6611025565b5b50919050565b6000610fb882610f05565b91507fffffffffffffffffffffffffffffffffffffffffffffffffffffffffffffffff821415610feb57610fea610ff6565b5b600182019050919050565b7f4e487b7100000000000000000000000000000000000000000000000000000000600052601160045260246000fd5b7f4e487b7100000000000000000000000000000000000000000000000000000000600052602260045260246000fd5b7f4e487b7100000000000000000000000000000000000000000000000000000000600052604160045260246000fd5b6000601f19601f8301169050919050565b61109d81610ed3565b81146110a857600080fd5b50565b6110b481610f05565b81146110bf57600080fd5b5056fea2646970667358221220f7c7541ab9b29770eb2126fb2d4e2f95b7c86c5fef69096ffae88d8ad0884df664736f6c63430008000033687474703a2f2f62616679626569653535647469777933753265796c32776f6a37743670336e686676657a623379356732343768646e6c79666b78676c733561676d2e697066732e6c6f63616c686f73743a383038302f",
  "immutableReferences": {},
  "source": "// SPDX-License-Identifier: MIT\r\npragma solidity ^0.8.0;\r\n\r\ncontract ERC721 {\r\n    mapping(uint256 => address) private _owners;\r\n    mapping(address => uint256) private _balances;\r\n\r\n    mapping(uint256 => string) private _tokenURIs;\r\n\r\n    string private _name = \"Pokemon\";\r\n    string private _symbol = \"PKM\";\r\n    string private _tokenHome = \"http://bafybeie55dtiwy3u2eyl2woj7t6p3nhfvezb3y5g247hdnlyfkxgls5agm.ipfs.localhost:8080/\";\r\n    uint256 private tokenCount = 0;\r\n\r\n    event Transfer(address indexed from, address indexed to, uint256 indexed tokenId);\r\n\r\n    modifier onlyOwner(uint256 tokenId) {\r\n        require(msg.sender == ownerOf(tokenId), \"Not the owner\");\r\n        _;\r\n    }\r\n\r\n    // Function to get the name of the token\r\n    function name() external view returns (string memory) {\r\n        return _name;\r\n    }\r\n\r\n    // Function to get the symbol of the token\r\n    function symbol() external view returns (string memory) {\r\n        return _symbol;\r\n    }\r\n\r\n    function balanceOf(address owner) external view returns (uint256) {\r\n        return _balances[owner];\r\n    }\r\n\r\n    function ownerOf(uint256 tokenId) public view returns (address) {\r\n        address owner = _owners[tokenId];\r\n        require(owner != address(0), \"Owner not found\");\r\n        return owner;\r\n    }\r\n\r\n    function transfer(address to, uint256 tokenId) external onlyOwner(tokenId) {\r\n        _transfer(msg.sender, to, tokenId);\r\n    }\r\n\r\n    function _transfer(address from, address to, uint256 tokenId) internal {\r\n        _owners[tokenId] = to;\r\n        _balances[from]--;\r\n        _balances[to]++;\r\n        emit Transfer(from, to, tokenId);\r\n    }\r\n\r\n    function mint(address to, uint256 tokenId, string memory tokenURI) external {\r\n        require(to != address(0), \"Cannot mint to zero address\");\r\n        // require(_owners[tokenId] == address(0), \"Token already minted\");\r\n\r\n        _balances[to]++;\r\n        _owners[tokenCount] = to;\r\n        _setTokenURI(tokenCount, tokenURI);\r\n\r\n        emit Transfer(address(0), to, tokenId);\r\n    }\r\n\r\n    function mintEasy(address to) external {\r\n        require(to != address(0), \"Cannot mint to zero address\");\r\n        // require(_owners[tokenId] == address(0), \"Token already minted\");\r\n\r\n        _balances[to]++;\r\n        _owners[tokenCount] = to;\r\n        _setTokenURI(tokenCount, _tokenHome);\r\n\r\n        emit Transfer(address(0), to, tokenCount);\r\n        tokenCount++;\r\n    }\r\n\r\n    function _getTokenURI(uint256 tokenId) external view returns(string memory) {\r\n        return _tokenURIs[tokenId];\r\n    }\r\n\r\n    function _setTokenURI(uint256 tokenId, string memory tokenURI) internal {\r\n        _tokenURIs[tokenId] = tokenURI;\r\n    }\r\n\r\n    function _getTokenCount() external view returns(uint256) {\r\n        return tokenCount;\r\n    }\r\n}\r\n",
  "sourcePath": "D:\\geth2\\smart_contract\\contracts\\NewNFT.sol",
  "compiler": {
    "name": "solc",
    "version": "0.8.0+commit.c7dfd78e.Emscripten.clang"
  },
  "schemaVersion": "3.4.16",
  "updatedAt": "2024-01-22T07:15:24.322Z",
  "networkType": "ethereum",
  "devdoc": {
    "kind": "dev",
    "methods": {},
    "version": 1
  },
  "userdoc": {
    "kind": "user",
    "methods": {},
    "version": 1
  }
}